{
  "_format": "hh-sol-artifact-1",
  "contractName": "MyNFT",
  "sourceName": "contracts/MyNFT.sol",
  "abi": [
    {
      "inputs": [
        {
          "internalType": "string",
          "name": "_name",
          "type": "string"
        },
        {
          "internalType": "string",
          "name": "_symbol",
          "type": "string"
        }
      ],
      "stateMutability": "nonpayable",
      "type": "constructor"
    },
    {
      "anonymous": false,
      "inputs": [
        {
          "indexed": true,
          "internalType": "address",
          "name": "owner",
          "type": "address"
        },
        {
          "indexed": true,
          "internalType": "address",
          "name": "approved",
          "type": "address"
        },
        {
          "indexed": true,
          "internalType": "uint256",
          "name": "tokenId",
          "type": "uint256"
        }
      ],
      "name": "Approval",
      "type": "event"
    },
    {
      "anonymous": false,
      "inputs": [
        {
          "indexed": true,
          "internalType": "address",
          "name": "owner",
          "type": "address"
        },
        {
          "indexed": true,
          "internalType": "address",
          "name": "operator",
          "type": "address"
        },
        {
          "indexed": false,
          "internalType": "bool",
          "name": "approved",
          "type": "bool"
        }
      ],
      "name": "ApprovalForAll",
      "type": "event"
    },
    {
      "anonymous": false,
      "inputs": [
        {
          "indexed": true,
          "internalType": "address",
          "name": "from",
          "type": "address"
        },
        {
          "indexed": true,
          "internalType": "address",
          "name": "to",
          "type": "address"
        },
        {
          "indexed": true,
          "internalType": "uint256",
          "name": "tokenId",
          "type": "uint256"
        }
      ],
      "name": "Transfer",
      "type": "event"
    },
    {
      "inputs": [
        {
          "internalType": "address",
          "name": "to",
          "type": "address"
        },
        {
          "internalType": "uint256",
          "name": "tokenId",
          "type": "uint256"
        }
      ],
      "name": "approve",
      "outputs": [],
      "stateMutability": "nonpayable",
      "type": "function"
    },
    {
      "inputs": [
        {
          "internalType": "address",
          "name": "owner",
          "type": "address"
        }
      ],
      "name": "balanceOf",
      "outputs": [
        {
          "internalType": "uint256",
          "name": "",
          "type": "uint256"
        }
      ],
      "stateMutability": "view",
      "type": "function"
    },
    {
      "inputs": [
        {
          "internalType": "uint256",
          "name": "tokenId",
          "type": "uint256"
        }
      ],
      "name": "getApproved",
      "outputs": [
        {
          "internalType": "address",
          "name": "",
          "type": "address"
        }
      ],
      "stateMutability": "view",
      "type": "function"
    },
    {
      "inputs": [
        {
          "internalType": "address",
          "name": "owner",
          "type": "address"
        },
        {
          "internalType": "address",
          "name": "operator",
          "type": "address"
        }
      ],
      "name": "isApprovedForAll",
      "outputs": [
        {
          "internalType": "bool",
          "name": "",
          "type": "bool"
        }
      ],
      "stateMutability": "view",
      "type": "function"
    },
    {
      "inputs": [
        {
          "internalType": "string",
          "name": "tokenURI",
          "type": "string"
        }
      ],
      "name": "mintArt",
      "outputs": [],
      "stateMutability": "payable",
      "type": "function"
    },
    {
      "inputs": [],
      "name": "name",
      "outputs": [
        {
          "internalType": "string",
          "name": "",
          "type": "string"
        }
      ],
      "stateMutability": "view",
      "type": "function"
    },
    {
      "inputs": [],
      "name": "owner",
      "outputs": [
        {
          "internalType": "address",
          "name": "",
          "type": "address"
        }
      ],
      "stateMutability": "view",
      "type": "function"
    },
    {
      "inputs": [
        {
          "internalType": "uint256",
          "name": "tokenId",
          "type": "uint256"
        }
      ],
      "name": "ownerOf",
      "outputs": [
        {
          "internalType": "address",
          "name": "",
          "type": "address"
        }
      ],
      "stateMutability": "view",
      "type": "function"
    },
    {
      "inputs": [
        {
          "internalType": "address",
          "name": "from",
          "type": "address"
        },
        {
          "internalType": "address",
          "name": "to",
          "type": "address"
        },
        {
          "internalType": "uint256",
          "name": "tokenId",
          "type": "uint256"
        }
      ],
      "name": "safeTransferFrom",
      "outputs": [],
      "stateMutability": "nonpayable",
      "type": "function"
    },
    {
      "inputs": [
        {
          "internalType": "address",
          "name": "from",
          "type": "address"
        },
        {
          "internalType": "address",
          "name": "to",
          "type": "address"
        },
        {
          "internalType": "uint256",
          "name": "tokenId",
          "type": "uint256"
        },
        {
          "internalType": "bytes",
          "name": "data",
          "type": "bytes"
        }
      ],
      "name": "safeTransferFrom",
      "outputs": [],
      "stateMutability": "nonpayable",
      "type": "function"
    },
    {
      "inputs": [
        {
          "internalType": "address",
          "name": "operator",
          "type": "address"
        },
        {
          "internalType": "bool",
          "name": "approved",
          "type": "bool"
        }
      ],
      "name": "setApprovalForAll",
      "outputs": [],
      "stateMutability": "nonpayable",
      "type": "function"
    },
    {
      "inputs": [
        {
          "internalType": "bytes4",
          "name": "interfaceId",
          "type": "bytes4"
        }
      ],
      "name": "supportsInterface",
      "outputs": [
        {
          "internalType": "bool",
          "name": "",
          "type": "bool"
        }
      ],
      "stateMutability": "view",
      "type": "function"
    },
    {
      "inputs": [],
      "name": "symbol",
      "outputs": [
        {
          "internalType": "string",
          "name": "",
          "type": "string"
        }
      ],
      "stateMutability": "view",
      "type": "function"
    },
    {
      "inputs": [
        {
          "internalType": "uint256",
          "name": "tokenId",
          "type": "uint256"
        }
      ],
      "name": "tokenURI",
      "outputs": [
        {
          "internalType": "string",
          "name": "",
          "type": "string"
        }
      ],
      "stateMutability": "view",
      "type": "function"
    },
    {
      "inputs": [],
      "name": "totalSupply",
      "outputs": [
        {
          "internalType": "uint256",
          "name": "",
          "type": "uint256"
        }
      ],
      "stateMutability": "view",
      "type": "function"
    },
    {
      "inputs": [
        {
          "internalType": "address",
          "name": "from",
          "type": "address"
        },
        {
          "internalType": "address",
          "name": "to",
          "type": "address"
        },
        {
          "internalType": "uint256",
          "name": "tokenId",
          "type": "uint256"
        }
      ],
      "name": "transferFrom",
      "outputs": [],
      "stateMutability": "nonpayable",
      "type": "function"
    }
  ],
  "bytecode": "0x60806040523480156200001157600080fd5b5060405162002f8538038062002f85833981810160405281019062000037919062000303565b8181816000908051906020019062000051929190620000b6565b5080600190805190602001906200006a929190620000b6565b50505033600860006101000a81548173ffffffffffffffffffffffffffffffffffffffff021916908373ffffffffffffffffffffffffffffffffffffffff1602179055505050620003ed565b828054620000c490620003b7565b90600052602060002090601f016020900481019282620000e8576000855562000134565b82601f106200010357805160ff191683800117855562000134565b8280016001018555821562000134579182015b828111156200013357825182559160200191906001019062000116565b5b50905062000143919062000147565b5090565b5b808211156200016257600081600090555060010162000148565b5090565b6000604051905090565b600080fd5b600080fd5b600080fd5b600080fd5b6000601f19601f8301169050919050565b7f4e487b7100000000000000000000000000000000000000000000000000000000600052604160045260246000fd5b620001cf8262000184565b810181811067ffffffffffffffff82111715620001f157620001f062000195565b5b80604052505050565b60006200020662000166565b9050620002148282620001c4565b919050565b600067ffffffffffffffff82111562000237576200023662000195565b5b620002428262000184565b9050602081019050919050565b60005b838110156200026f57808201518184015260208101905062000252565b838111156200027f576000848401525b50505050565b60006200029c620002968462000219565b620001fa565b905082815260208101848484011115620002bb57620002ba6200017f565b5b620002c88482856200024f565b509392505050565b600082601f830112620002e857620002e76200017a565b5b8151620002fa84826020860162000285565b91505092915050565b600080604083850312156200031d576200031c62000170565b5b600083015167ffffffffffffffff8111156200033e576200033d62000175565b5b6200034c85828601620002d0565b925050602083015167ffffffffffffffff81111562000370576200036f62000175565b5b6200037e85828601620002d0565b9150509250929050565b7f4e487b7100000000000000000000000000000000000000000000000000000000600052602260045260246000fd5b60006002820490506001821680620003d057607f821691505b60208210811415620003e757620003e662000388565b5b50919050565b612b8880620003fd6000396000f3fe6080604052600436106100f35760003560e01c806370a082311161008a578063a22cb46511610059578063a22cb4651461032f578063b88d4fde14610358578063c87b56dd14610381578063e985e9c5146103be576100f3565b806370a0823114610280578063818d5836146102bd5780638da5cb5b146102d957806395d89b4114610304576100f3565b806318160ddd116100c657806318160ddd146101c657806323b872dd146101f157806342842e0e1461021a5780636352211e14610243576100f3565b806301ffc9a7146100f857806306fdde0314610135578063081812fc14610160578063095ea7b31461019d575b600080fd5b34801561010457600080fd5b5061011f600480360381019061011a9190611c45565b6103fb565b60405161012c9190611c8d565b60405180910390f35b34801561014157600080fd5b5061014a6104dd565b6040516101579190611d41565b60405180910390f35b34801561016c57600080fd5b5061018760048036038101906101829190611d99565b61056f565b6040516101949190611e07565b60405180910390f35b3480156101a957600080fd5b506101c460048036038101906101bf9190611e4e565b6105b5565b005b3480156101d257600080fd5b506101db6106cd565b6040516101e89190611e9d565b60405180910390f35b3480156101fd57600080fd5b5061021860048036038101906102139190611eb8565b6106de565b005b34801561022657600080fd5b50610241600480360381019061023c9190611eb8565b61073e565b005b34801561024f57600080fd5b5061026a60048036038101906102659190611d99565b61075e565b6040516102779190611e07565b60405180910390f35b34801561028c57600080fd5b506102a760048036038101906102a29190611f0b565b6107e5565b6040516102b49190611e9d565b60405180910390f35b6102d760048036038101906102d2919061206d565b61089d565b005b3480156102e557600080fd5b506102ee6108cd565b6040516102fb9190611e07565b60405180910390f35b34801561031057600080fd5b506103196108f3565b6040516103269190611d41565b60405180910390f35b34801561033b57600080fd5b50610356600480360381019061035191906120e2565b610985565b005b34801561036457600080fd5b5061037f600480360381019061037a91906121c3565b61099b565b005b34801561038d57600080fd5b506103a860048036038101906103a39190611d99565b6109fd565b6040516103b59190611d41565b60405180910390f35b3480156103ca57600080fd5b506103e560048036038101906103e09190612246565b610b10565b6040516103f29190611c8d565b60405180910390f35b60007f80ac58cd000000000000000000000000000000000000000000000000000000007bffffffffffffffffffffffffffffffffffffffffffffffffffffffff1916827bffffffffffffffffffffffffffffffffffffffffffffffffffffffff191614806104c657507f5b5e139f000000000000000000000000000000000000000000000000000000007bffffffffffffffffffffffffffffffffffffffffffffffffffffffff1916827bffffffffffffffffffffffffffffffffffffffffffffffffffffffff1916145b806104d657506104d582610ba4565b5b9050919050565b6060600080546104ec906122b5565b80601f0160208091040260200160405190810160405280929190818152602001828054610518906122b5565b80156105655780601f1061053a57610100808354040283529160200191610565565b820191906000526020600020905b81548152906001019060200180831161054857829003601f168201915b5050505050905090565b600061057a82610c0e565b6004600083815260200190815260200160002060009054906101000a900473ffffffffffffffffffffffffffffffffffffffff169050919050565b60006105c08261075e565b90508073ffffffffffffffffffffffffffffffffffffffff168373ffffffffffffffffffffffffffffffffffffffff161415610631576040517f08c379a000000000000000000000000000000000000000000000000000000000815260040161062890612359565b60405180910390fd5b8073ffffffffffffffffffffffffffffffffffffffff16610650610c59565b73ffffffffffffffffffffffffffffffffffffffff16148061067f575061067e81610679610c59565b610b10565b5b6106be576040517f08c379a00000000000000000000000000000000000000000000000000000000081526004016106b5906123eb565b60405180910390fd5b6106c88383610c61565b505050565b60006106d96007610d1a565b905090565b6106ef6106e9610c59565b82610d28565b61072e576040517f08c379a00000000000000000000000000000000000000000000000000000000081526004016107259061247d565b60405180910390fd5b610739838383610dbd565b505050565b6107598383836040518060200160405280600081525061099b565b505050565b60008061076a836110b7565b9050600073ffffffffffffffffffffffffffffffffffffffff168173ffffffffffffffffffffffffffffffffffffffff1614156107dc576040517f08c379a00000000000000000000000000000000000000000000000000000000081526004016107d3906124e9565b60405180910390fd5b80915050919050565b60008073ffffffffffffffffffffffffffffffffffffffff168273ffffffffffffffffffffffffffffffffffffffff161415610856576040517f08c379a000000000000000000000000000000000000000000000000000000000815260040161084d9061257b565b60405180910390fd5b600360008373ffffffffffffffffffffffffffffffffffffffff1673ffffffffffffffffffffffffffffffffffffffff168152602001908152602001600020549050919050565b6108a760076110f4565b60006108b36007610d1a565b90506108bf338261110a565b6108c98183611328565b5050565b600860009054906101000a900473ffffffffffffffffffffffffffffffffffffffff1681565b606060018054610902906122b5565b80601f016020809104026020016040519081016040528092919081815260200182805461092e906122b5565b801561097b5780601f106109505761010080835404028352916020019161097b565b820191906000526020600020905b81548152906001019060200180831161095e57829003601f168201915b5050505050905090565b610997610990610c59565b838361139c565b5050565b6109ac6109a6610c59565b83610d28565b6109eb576040517f08c379a00000000000000000000000000000000000000000000000000000000081526004016109e29061247d565b60405180910390fd5b6109f784848484611509565b50505050565b6060610a0882610c0e565b6000600660008481526020019081526020016000208054610a28906122b5565b80601f0160208091040260200160405190810160405280929190818152602001828054610a54906122b5565b8015610aa15780601f10610a7657610100808354040283529160200191610aa1565b820191906000526020600020905b815481529060010190602001808311610a8457829003601f168201915b505050505090506000610ab2611565565b9050600081511415610ac8578192505050610b0b565b600082511115610afd578082604051602001610ae59291906125d7565b60405160208183030381529060405292505050610b0b565b610b068461157c565b925050505b919050565b6000600560008473ffffffffffffffffffffffffffffffffffffffff1673ffffffffffffffffffffffffffffffffffffffff16815260200190815260200160002060008373ffffffffffffffffffffffffffffffffffffffff1673ffffffffffffffffffffffffffffffffffffffff16815260200190815260200160002060009054906101000a900460ff16905092915050565b60007f01ffc9a7000000000000000000000000000000000000000000000000000000007bffffffffffffffffffffffffffffffffffffffffffffffffffffffff1916827bffffffffffffffffffffffffffffffffffffffffffffffffffffffff1916149050919050565b610c17816115e4565b610c56576040517f08c379a0000000000000000000000000000000000000000000000000000000008152600401610c4d906124e9565b60405180910390fd5b50565b600033905090565b816004600083815260200190815260200160002060006101000a81548173ffffffffffffffffffffffffffffffffffffffff021916908373ffffffffffffffffffffffffffffffffffffffff160217905550808273ffffffffffffffffffffffffffffffffffffffff16610cd48361075e565b73ffffffffffffffffffffffffffffffffffffffff167f8c5be1e5ebec7d5bd14f71427d1e84f3dd0314c0f7b2291e5b200ac8c7c3b92560405160405180910390a45050565b600081600001549050919050565b600080610d348361075e565b90508073ffffffffffffffffffffffffffffffffffffffff168473ffffffffffffffffffffffffffffffffffffffff161480610d765750610d758185610b10565b5b80610db457508373ffffffffffffffffffffffffffffffffffffffff16610d9c8461056f565b73ffffffffffffffffffffffffffffffffffffffff16145b91505092915050565b8273ffffffffffffffffffffffffffffffffffffffff16610ddd8261075e565b73ffffffffffffffffffffffffffffffffffffffff1614610e33576040517f08c379a0000000000000000000000000000000000000000000000000000000008152600401610e2a9061266d565b60405180910390fd5b600073ffffffffffffffffffffffffffffffffffffffff168273ffffffffffffffffffffffffffffffffffffffff161415610ea3576040517f08c379a0000000000000000000000000000000000000000000000000000000008152600401610e9a906126ff565b60405180910390fd5b610eb08383836001611625565b8273ffffffffffffffffffffffffffffffffffffffff16610ed08261075e565b73ffffffffffffffffffffffffffffffffffffffff1614610f26576040517f08c379a0000000000000000000000000000000000000000000000000000000008152600401610f1d9061266d565b60405180910390fd5b6004600082815260200190815260200160002060006101000a81549073ffffffffffffffffffffffffffffffffffffffff02191690556001600360008573ffffffffffffffffffffffffffffffffffffffff1673ffffffffffffffffffffffffffffffffffffffff168152602001908152602001600020600082825403925050819055506001600360008473ffffffffffffffffffffffffffffffffffffffff1673ffffffffffffffffffffffffffffffffffffffff16815260200190815260200160002060008282540192505081905550816002600083815260200190815260200160002060006101000a81548173ffffffffffffffffffffffffffffffffffffffff021916908373ffffffffffffffffffffffffffffffffffffffff160217905550808273ffffffffffffffffffffffffffffffffffffffff168473ffffffffffffffffffffffffffffffffffffffff167fddf252ad1be2c89b69c2b068fc378daa952ba7f163c4a11628f55a4df523b3ef60405160405180910390a46110b2838383600161174b565b505050565b60006002600083815260200190815260200160002060009054906101000a900473ffffffffffffffffffffffffffffffffffffffff169050919050565b6001816000016000828254019250508190555050565b600073ffffffffffffffffffffffffffffffffffffffff168273ffffffffffffffffffffffffffffffffffffffff16141561117a576040517f08c379a00000000000000000000000000000000000000000000000000000000081526004016111719061276b565b60405180910390fd5b611183816115e4565b156111c3576040517f08c379a00000000000000000000000000000000000000000000000000000000081526004016111ba906127d7565b60405180910390fd5b6111d1600083836001611625565b6111da816115e4565b1561121a576040517f08c379a0000000000000000000000000000000000000000000000000000000008152600401611211906127d7565b60405180910390fd5b6001600360008473ffffffffffffffffffffffffffffffffffffffff1673ffffffffffffffffffffffffffffffffffffffff16815260200190815260200160002060008282540192505081905550816002600083815260200190815260200160002060006101000a81548173ffffffffffffffffffffffffffffffffffffffff021916908373ffffffffffffffffffffffffffffffffffffffff160217905550808273ffffffffffffffffffffffffffffffffffffffff16600073ffffffffffffffffffffffffffffffffffffffff167fddf252ad1be2c89b69c2b068fc378daa952ba7f163c4a11628f55a4df523b3ef60405160405180910390a461132460008383600161174b565b5050565b611331826115e4565b611370576040517f08c379a000000000000000000000000000000000000000000000000000000000815260040161136790612869565b60405180910390fd5b80600660008481526020019081526020016000209080519060200190611397929190611b36565b505050565b8173ffffffffffffffffffffffffffffffffffffffff168373ffffffffffffffffffffffffffffffffffffffff16141561140b576040517f08c379a0000000000000000000000000000000000000000000000000000000008152600401611402906128d5565b60405180910390fd5b80600560008573ffffffffffffffffffffffffffffffffffffffff1673ffffffffffffffffffffffffffffffffffffffff16815260200190815260200160002060008473ffffffffffffffffffffffffffffffffffffffff1673ffffffffffffffffffffffffffffffffffffffff16815260200190815260200160002060006101000a81548160ff0219169083151502179055508173ffffffffffffffffffffffffffffffffffffffff168373ffffffffffffffffffffffffffffffffffffffff167f17307eab39ab6107e8899845ad3d59bd9653f200f220920489ca2b5937696c31836040516114fc9190611c8d565b60405180910390a3505050565b611514848484610dbd565b61152084848484611751565b61155f576040517f08c379a000000000000000000000000000000000000000000000000000000000815260040161155690612967565b60405180910390fd5b50505050565b606060405180602001604052806000815250905090565b606061158782610c0e565b6000611591611565565b905060008151116115b157604051806020016040528060008152506115dc565b806115bb846118e8565b6040516020016115cc9291906125d7565b6040516020818303038152906040525b915050919050565b60008073ffffffffffffffffffffffffffffffffffffffff16611606836110b7565b73ffffffffffffffffffffffffffffffffffffffff1614159050919050565b600181111561174557600073ffffffffffffffffffffffffffffffffffffffff168473ffffffffffffffffffffffffffffffffffffffff16146116b95780600360008673ffffffffffffffffffffffffffffffffffffffff1673ffffffffffffffffffffffffffffffffffffffff16815260200190815260200160002060008282546116b191906129b6565b925050819055505b600073ffffffffffffffffffffffffffffffffffffffff168373ffffffffffffffffffffffffffffffffffffffff16146117445780600360008573ffffffffffffffffffffffffffffffffffffffff1673ffffffffffffffffffffffffffffffffffffffff168152602001908152602001600020600082825461173c91906129ea565b925050819055505b5b50505050565b50505050565b60006117728473ffffffffffffffffffffffffffffffffffffffff166119c0565b156118db578373ffffffffffffffffffffffffffffffffffffffff1663150b7a0261179b610c59565b8786866040518563ffffffff1660e01b81526004016117bd9493929190612a95565b602060405180830381600087803b1580156117d757600080fd5b505af192505050801561180857506040513d601f19601f820116820180604052508101906118059190612af6565b60015b61188b573d8060008114611838576040519150601f19603f3d011682016040523d82523d6000602084013e61183d565b606091505b50600081511415611883576040517f08c379a000000000000000000000000000000000000000000000000000000000815260040161187a90612967565b60405180910390fd5b805181602001fd5b63150b7a0260e01b7bffffffffffffffffffffffffffffffffffffffffffffffffffffffff1916817bffffffffffffffffffffffffffffffffffffffffffffffffffffffff1916149150506118e0565b600190505b949350505050565b6060600060016118f7846119e3565b01905060008167ffffffffffffffff81111561191657611915611f42565b5b6040519080825280601f01601f1916602001820160405280156119485781602001600182028036833780820191505090505b509050600082602001820190505b6001156119b5578080600190039150507f3031323334353637383961626364656600000000000000000000000000000000600a86061a8153600a858161199f5761199e612b23565b5b04945060008514156119b0576119b5565b611956565b819350505050919050565b6000808273ffffffffffffffffffffffffffffffffffffffff163b119050919050565b600080600090507a184f03e93ff9f4daa797ed6e38ed64bf6a1f0100000000000000008310611a41577a184f03e93ff9f4daa797ed6e38ed64bf6a1f0100000000000000008381611a3757611a36612b23565b5b0492506040810190505b6d04ee2d6d415b85acef81000000008310611a7e576d04ee2d6d415b85acef81000000008381611a7457611a73612b23565b5b0492506020810190505b662386f26fc100008310611aad57662386f26fc100008381611aa357611aa2612b23565b5b0492506010810190505b6305f5e1008310611ad6576305f5e1008381611acc57611acb612b23565b5b0492506008810190505b6127108310611afb576127108381611af157611af0612b23565b5b0492506004810190505b60648310611b1e5760648381611b1457611b13612b23565b5b0492506002810190505b600a8310611b2d576001810190505b80915050919050565b828054611b42906122b5565b90600052602060002090601f016020900481019282611b645760008555611bab565b82601f10611b7d57805160ff1916838001178555611bab565b82800160010185558215611bab579182015b82811115611baa578251825591602001919060010190611b8f565b5b509050611bb89190611bbc565b5090565b5b80821115611bd5576000816000905550600101611bbd565b5090565b6000604051905090565b600080fd5b600080fd5b60007fffffffff0000000000000000000000000000000000000000000000000000000082169050919050565b611c2281611bed565b8114611c2d57600080fd5b50565b600081359050611c3f81611c19565b92915050565b600060208284031215611c5b57611c5a611be3565b5b6000611c6984828501611c30565b91505092915050565b60008115159050919050565b611c8781611c72565b82525050565b6000602082019050611ca26000830184611c7e565b92915050565b600081519050919050565b600082825260208201905092915050565b60005b83811015611ce2578082015181840152602081019050611cc7565b83811115611cf1576000848401525b50505050565b6000601f19601f8301169050919050565b6000611d1382611ca8565b611d1d8185611cb3565b9350611d2d818560208601611cc4565b611d3681611cf7565b840191505092915050565b60006020820190508181036000830152611d5b8184611d08565b905092915050565b6000819050919050565b611d7681611d63565b8114611d8157600080fd5b50565b600081359050611d9381611d6d565b92915050565b600060208284031215611daf57611dae611be3565b5b6000611dbd84828501611d84565b91505092915050565b600073ffffffffffffffffffffffffffffffffffffffff82169050919050565b6000611df182611dc6565b9050919050565b611e0181611de6565b82525050565b6000602082019050611e1c6000830184611df8565b92915050565b611e2b81611de6565b8114611e3657600080fd5b50565b600081359050611e4881611e22565b92915050565b60008060408385031215611e6557611e64611be3565b5b6000611e7385828601611e39565b9250506020611e8485828601611d84565b9150509250929050565b611e9781611d63565b82525050565b6000602082019050611eb26000830184611e8e565b92915050565b600080600060608486031215611ed157611ed0611be3565b5b6000611edf86828701611e39565b9350506020611ef086828701611e39565b9250506040611f0186828701611d84565b9150509250925092565b600060208284031215611f2157611f20611be3565b5b6000611f2f84828501611e39565b91505092915050565b600080fd5b600080fd5b7f4e487b7100000000000000000000000000000000000000000000000000000000600052604160045260246000fd5b611f7a82611cf7565b810181811067ffffffffffffffff82111715611f9957611f98611f42565b5b80604052505050565b6000611fac611bd9565b9050611fb88282611f71565b919050565b600067ffffffffffffffff821115611fd857611fd7611f42565b5b611fe182611cf7565b9050602081019050919050565b82818337600083830152505050565b600061201061200b84611fbd565b611fa2565b90508281526020810184848401111561202c5761202b611f3d565b5b612037848285611fee565b509392505050565b600082601f83011261205457612053611f38565b5b8135612064848260208601611ffd565b91505092915050565b60006020828403121561208357612082611be3565b5b600082013567ffffffffffffffff8111156120a1576120a0611be8565b5b6120ad8482850161203f565b91505092915050565b6120bf81611c72565b81146120ca57600080fd5b50565b6000813590506120dc816120b6565b92915050565b600080604083850312156120f9576120f8611be3565b5b600061210785828601611e39565b9250506020612118858286016120cd565b9150509250929050565b600067ffffffffffffffff82111561213d5761213c611f42565b5b61214682611cf7565b9050602081019050919050565b600061216661216184612122565b611fa2565b90508281526020810184848401111561218257612181611f3d565b5b61218d848285611fee565b509392505050565b600082601f8301126121aa576121a9611f38565b5b81356121ba848260208601612153565b91505092915050565b600080600080608085870312156121dd576121dc611be3565b5b60006121eb87828801611e39565b94505060206121fc87828801611e39565b935050604061220d87828801611d84565b925050606085013567ffffffffffffffff81111561222e5761222d611be8565b5b61223a87828801612195565b91505092959194509250565b6000806040838503121561225d5761225c611be3565b5b600061226b85828601611e39565b925050602061227c85828601611e39565b9150509250929050565b7f4e487b7100000000000000000000000000000000000000000000000000000000600052602260045260246000fd5b600060028204905060018216806122cd57607f821691505b602082108114156122e1576122e0612286565b5b50919050565b7f4552433732313a20617070726f76616c20746f2063757272656e74206f776e6560008201527f7200000000000000000000000000000000000000000000000000000000000000602082015250565b6000612343602183611cb3565b915061234e826122e7565b604082019050919050565b6000602082019050818103600083015261237281612336565b9050919050565b7f4552433732313a20617070726f76652063616c6c6572206973206e6f7420746f60008201527f6b656e206f776e6572206f7220617070726f76656420666f7220616c6c000000602082015250565b60006123d5603d83611cb3565b91506123e082612379565b604082019050919050565b60006020820190508181036000830152612404816123c8565b9050919050565b7f4552433732313a2063616c6c6572206973206e6f7420746f6b656e206f776e6560008201527f72206f7220617070726f76656400000000000000000000000000000000000000602082015250565b6000612467602d83611cb3565b91506124728261240b565b604082019050919050565b600060208201905081810360008301526124968161245a565b9050919050565b7f4552433732313a20696e76616c696420746f6b656e2049440000000000000000600082015250565b60006124d3601883611cb3565b91506124de8261249d565b602082019050919050565b60006020820190508181036000830152612502816124c6565b9050919050565b7f4552433732313a2061646472657373207a65726f206973206e6f74206120766160008201527f6c6964206f776e65720000000000000000000000000000000000000000000000602082015250565b6000612565602983611cb3565b915061257082612509565b604082019050919050565b6000602082019050818103600083015261259481612558565b9050919050565b600081905092915050565b60006125b182611ca8565b6125bb818561259b565b93506125cb818560208601611cc4565b80840191505092915050565b60006125e382856125a6565b91506125ef82846125a6565b91508190509392505050565b7f4552433732313a207472616e736665722066726f6d20696e636f72726563742060008201527f6f776e6572000000000000000000000000000000000000000000000000000000602082015250565b6000612657602583611cb3565b9150612662826125fb565b604082019050919050565b600060208201905081810360008301526126868161264a565b9050919050565b7f4552433732313a207472616e7366657220746f20746865207a65726f2061646460008201527f7265737300000000000000000000000000000000000000000000000000000000602082015250565b60006126e9602483611cb3565b91506126f48261268d565b604082019050919050565b60006020820190508181036000830152612718816126dc565b9050919050565b7f4552433732313a206d696e7420746f20746865207a65726f2061646472657373600082015250565b6000612755602083611cb3565b91506127608261271f565b602082019050919050565b6000602082019050818103600083015261278481612748565b9050919050565b7f4552433732313a20746f6b656e20616c7265616479206d696e74656400000000600082015250565b60006127c1601c83611cb3565b91506127cc8261278b565b602082019050919050565b600060208201905081810360008301526127f0816127b4565b9050919050565b7f45524337323155524953746f726167653a2055524920736574206f66206e6f6e60008201527f6578697374656e7420746f6b656e000000000000000000000000000000000000602082015250565b6000612853602e83611cb3565b915061285e826127f7565b604082019050919050565b6000602082019050818103600083015261288281612846565b9050919050565b7f4552433732313a20617070726f766520746f2063616c6c657200000000000000600082015250565b60006128bf601983611cb3565b91506128ca82612889565b602082019050919050565b600060208201905081810360008301526128ee816128b2565b9050919050565b7f4552433732313a207472616e7366657220746f206e6f6e20455243373231526560008201527f63656976657220696d706c656d656e7465720000000000000000000000000000602082015250565b6000612951603283611cb3565b915061295c826128f5565b604082019050919050565b6000602082019050818103600083015261298081612944565b9050919050565b7f4e487b7100000000000000000000000000000000000000000000000000000000600052601160045260246000fd5b60006129c182611d63565b91506129cc83611d63565b9250828210156129df576129de612987565b5b828203905092915050565b60006129f582611d63565b9150612a0083611d63565b9250827fffffffffffffffffffffffffffffffffffffffffffffffffffffffffffffffff03821115612a3557612a34612987565b5b828201905092915050565b600081519050919050565b600082825260208201905092915050565b6000612a6782612a40565b612a718185612a4b565b9350612a81818560208601611cc4565b612a8a81611cf7565b840191505092915050565b6000608082019050612aaa6000830187611df8565b612ab76020830186611df8565b612ac46040830185611e8e565b8181036060830152612ad68184612a5c565b905095945050505050565b600081519050612af081611c19565b92915050565b600060208284031215612b0c57612b0b611be3565b5b6000612b1a84828501612ae1565b91505092915050565b7f4e487b7100000000000000000000000000000000000000000000000000000000600052601260045260246000fdfea26469706673582212203b87685302d3b51571aa6300056f7668e17b8ff66483e6809562c52b7b37510164736f6c63430008090033",
  "linkReferences": {},
  "deployedLinkReferences": {}
}